:020000040000fa
:080000000002040000000000f2
:020000040000fa
:040008000a030000e7
:020000040000fa
:04000c0010030000dd
:020000040000fa
:0400100002070000e3
:020000040000fa
:0400140016030000cf
:020000040000fa
:040018001c030000c5
:020000040000fa
:04001c0022030000bb
:020000040000fa
:0400200002070000d3
:020000040000fa
:0400240002070000cf
:020000040000fa
:0400280002070000cb
:020000040000fa
:04002c0002070000c7
:020000040000fa
:0400300002070000c3
:020000040000fa
:0400340002070000bf
:020000040000fa
:04003800fa060000c4
:020000040000fa
:04003c0002070000b7
:020000040000fa
:0400400002070000b3
:020000040000fa
:04004400280300008d
:020000040000fa
:0400480002070000ab
:020000040000fa
:04004c0002070000a7
:020000040000fa
:0400500002070000a3
:020000040000fa
:04005400980300000d
:020000040000fa
:040058009003000011
:020000040000fa
:04005c000207000097
:020000040000fa
:040060000207000093
:020000040000fa
:04006400020700008f
:020000040000fa
:04006800020700008b
:020000040000fa
:04006c000207000087
:020000040000fa
:040070000207000083
:020000040000fa
:04007400020700007f
:020000040000fa
:04007800020700007b
:020000040000fa
:04007c000207000077
:020000040000fa
:040080000207000073
:020000040000fa
:04008400020700006f
:020000040000fa
:04008800f20600007c
:020000040000fa
:04008c000207000067
:020000040000fa
:040090000207000063
:020000040000fa
:04009400020700005f
:020000040000fa
:04009800020700005b
:020000040000fa
:04009c000207000057
:020000040000fa
:0400a0000207000053
:020000040000fa
:0400a400020700004f
:020000040000fa
:0400a800020700004b
:020000040000fa
:0400ac000207000047
:020000040000fa
:0400b0000207000043
:020000040000fa
:0400b400260600001c
:020000040000fa
:0400b800020700003b
:020000040000fa
:0400bc000207000037
:020000040000fa
:0400c0000207000033
:020000040000fa
:0400c400020700002f
:020000040000fa
:0400c800020700002b
:020000040000fa
:0400cc000207000027
:020000040000fa
:0400d0000207000023
:020000040000fa
:0400d400020700001f
:020000040000fa
:0400d800020700001b
:020000040000fa
:0400dc000207000017
:020000040000fa
:0400e0000207000013
:020000040000fa
:0400e400020700000f
:020000040000fa
:0400e800020700000b
:020000040000fa
:0400ec000207000007
:020000040000fa
:0400f0000207000003
:020000040000fa
:0400f40002070000ff
:020000040000fa
:0400f80002070000fb
:020000040000fa
:0400fc0002070000f7
:020000040000fa
:0401000002070000f2
:020000040000fa
:0401040002070000ee
:020000040000fa
:0401080002070000ea
:020000040000fa
:04010c0002070000e6
:020000040000fa
:0401100002070000e2
:020000040000fa
:0401140002070000de
:020000040000fa
:0401180002070000da
:020000040000fa
:04011c0002070000d6
:020000040000fa
:0401200002070000d2
:020000040000fa
:0401240002070000ce
:020000040000fa
:0401280002070000ca
:020000040000fa
:04012c0002070000c6
:020000040000fa
:0401300002070000c2
:020000040000fa
:0401340002070000be
:020000040000fa
:0401380002070000ba
:020000040000fa
:04013c0002070000b6
:020000040000fa
:0401400002070000b2
:020000040000fa
:0401440002070000ae
:020000040000fa
:0401480002070000aa
:020000040000fa
:04014c0002070000a6
:020000040000fa
:0401500002070000a2
:020000040000fa
:04015400020700009e
:020000040000fa
:04015800020700009a
:020000040000fa
:04015c000207000096
:020000040000fa
:040160000207000092
:020000040000fa
:04016400020700008e
:020000040000fa
:04016800020700008a
:020000040000fa
:04016c000207000086
:020000040000fa
:040170000207000082
:020000040000fa
:04017400020700007e
:020000040000fa
:04017800020700007a
:020000040000fa
:04017c000207000076
:020000040000fa
:040180000207000072
:020000040000fa
:04018400020700006e
:020000040000fa
:04018800020700006a
:020000040000fa
:04018c000207000066
:020000040000fa
:040190000207000062
:020000040000fa
:04019400020700005e
:020000040000fa
:04019800020700005a
:020000040000fa
:04019c000207000056
:020000040000fa
:0401a0000207000052
:020000040000fa
:0401a400020700004e
:020000040000fa
:0401a800020700004a
:020000040000fa
:0401ac000207000046
:020000040000fa
:0401b0000207000042
:020000040000fa
:0401b400020700003e
:020000040000fa
:0401b800020700003a
:020000040000fa
:0401bc000207000036
:020000040000fa
:0401c0000207000032
:020000040000fa
:0401c400020700002e
:020000040000fa
:0401c800020700002a
:020000040000fa
:0401cc000207000026
:020000040000fa
:0401d0000207000022
:020000040000fa
:0401d400020700001e
:020000040000fa
:0401d800020700001a
:020000040000fa
:0401dc000207000016
:020000040000fa
:0401e0000207000012
:020000040000fa
:0401e400020700000e
:020000040000fa
:0401e800020700000a
:020000040000fa
:0401ec000207000006
:020000040000fa
:0401f0000207000002
:020000040000fa
:0401f40002070000fe
:020000040000fa
:0401f80002070000fa
:020000040000fa
:0401fc0002070000f6
:020000040000fa
:0402000002070000f1
:020000040000fa
:0402040002070000ed
:020000040000fa
:0402080002070000e9
:020000040000fa
:04020c0002070000e5
:020000040000fa
:0402100002070000e1
:020000040000fa
:0402140002070000dd
:020000040000fa
:0402180002070000d9
:020000040000fa
:04021c0002070000d5
:020000040000fa
:0402200002070000d1
:020000040000fa
:0402240002070000cd
:020000040000fa
:0402280002070000c9
:020000040000fa
:04022c0002070000c5
:020000040000fa
:0402300002070000c1
:020000040000fa
:0402340002070000bd
:020000040000fa
:0402380002070000b9
:020000040000fa
:04023c0002070000b5
:020000040000fa
:0402400002070000b1
:020000040000fa
:0402440002070000ad
:020000040000fa
:0402480002070000a9
:020000040000fa
:04024c0002070000a5
:020000040000fa
:0402500002070000a1
:020000040000fa
:04025400020700009d
:020000040000fa
:040258000207000099
:020000040000fa
:04025c000207000095
:020000040000fa
:040260000207000091
:020000040000fa
:04026400020700008d
:020000040000fa
:040268000207000089
:020000040000fa
:04026c000207000085
:020000040000fa
:040270000207000081
:020000040000fa
:04027400020700007d
:020000040000fa
:040278000207000079
:020000040000fa
:04027c000207000075
:020000040000fa
:040280000207000071
:020000040000fa
:100400000fb122000eff22000e0188000000000044
:10041000000020000000e000020032000001200087
:100420002002880014000700c30207000000e0005b
:1004300003003a00a003260001002000020037005c
:100440000000200001002000810f70000100320038
:100450000f000700000020000000e0000200320052
:1004600000000200000000005a5f020000000000cf
:100470000040da000000fe0040e620000000e0003e
:1004800002003200002020009001880000000600d9
:10049000a1028800800478000000eb001f003700f4
:1004a000e284440054a0b4009905ba00e2844400f8
:1004b00054a0b4009906ba00e284440054a0b400e9
:1004c0000006eb00476fde00fd07b200ae018800ba
:1004d000636ce10003003a000ad801000000eb0061
:1004e0000e003700606ce10008003a00004deb00a0
:1004f0000a05e800020039003420ec000af0a000f0
:100500008b05e900f9ff3e00040037006168e10057
:10051000010032000086eb000b00070019c7ba008b
:100520000e04e0001905ba0003003a000a00e000da
:10053000dbff3a0000000600fe07b200ae028800b2
:100540008a047800f5ff37000cd0a300e20f4d00bd
:100550001c003b0089027800354dba000a05e8000e
:10056000020039003420ec000af0a0008b05e900fd
:100570000f003200254dba000a05e80002003900dc
:100580003420ec000af0a0008b05e90008003200de
:100590000c00e0000600320015cdba000a05e800a4
:1005a000020039003420ec000af0a0008b05e900bd
:1005b0008984e80054a0b4000b00e000e2ff3a0098
:1005c000000006009902ba00055d78008b05e9007d
:1005d000f7ff3200c82ade00055d78008b05e900d0
:1005e000f3ff32000c00e000f1ff320019ddba0029
:1005f000eeff3700000000000000000000000000d7
:1006000000000000000000000000000000000000ea
:10061000000000000000fa00c028a900ffff37001a
:100620000000fa00c068a900ffff37000000fa00d0
:10063000c048a900ffff37000000fa00c088a900e9
:10064000ffff37000000fa00c0a8a900ffff370035
:100650003600f800809fbe00829fbe00849fbe00cf
:10066000869fbe000000fa0000e8a9000010a80064
:1006700001d0bf000040e80001f0b70001d0bf008a
:10068000e84f50001e0036000170ef0002d0bf009e
:100690000040e80002f0b7000030a800210021006f
:1006a00091407800a0c3b30080cf50001400360002
:1006b0000270ef0003d0bf000040e80003f0b70075
:1006c0000050a8003100210091407800a0c3b30081
:1006d00080cf50000a0036000370ef000070a800c1
:1006e00004d0bf000040e80004f0b70004d0bf0011
:1006f000f64f5000020036000470ef000090a80092
:10070000792b07000080fa004f03be004f02be00a5
:100710004f01be004f00be003600f9000040060049
:100720000000fa000188a9000080fa0000400600dd
:100730003600f800809fbe00829fbe00849fbe00ee
:10074000869fbe000200fa000168a9001011800017
:10075000610060000000e000350132000000eb00a5
:10076000000f780031118000010f78000005200093
:100770001e00680000f0a7000000ea000000e90089
:100780004f00de0080407800000720001e00680057
:1007900000f0a7000000ea000000e9004f00de00c2
:1007a0000040780000c070000004e0002800320023
:1007b00000218000801f7800800e2a00801f7800b2
:1007c000de010700e487570010218000801f7800b9
:1007d000800f2a00801f7800d8010700e4875700a7
:1007e000551d07000004e0000300320080102a00bd
:1007f000e40107000200370010122a00e10107009f
:1008000080218000680060000000e00003003200ea
:10081000e0132a00db0107000200370070152a00f0
:10082000d801070081218000008020000080600046
:100830000000e0000300320000172a00d101070089
:10084000fb00370090182a00ce010700f80037009f
:10085000400520001e00680000f0a7000000ea002c
:100860000000e9004f00de008040780040072000d3
:100870001e00680000f0a7000000ea000000e90088
:100880004f00de000040780000c070000004e0006f
:10089000060032006050200041302000222020005d
:1008a0000300200077290700e10037003004200012
:1008b0001e00680000f0a7000000ea000000e90048
:1008c0004f00de0080407800300620001e006800e7
:1008d00000f0a7000000ea000000e9004f00de0081
:1008e0000040780000c070000004e0000200320008
:1008f0003064a900ce003700c00420001e0068004c
:1009000000f0a7000000ea000000e9004f00de0050
:1009100080407800c00620001e00680000f0a7009c
:100920000000ea000000e9004f00de00004078000f
:1009300000c070000004e000030032000040eb0043
:10094000de170700ba003700500520001e006800bf
:1009500000f0a7000000ea000000e9004f00de0000
:1009600080407800500720001e00680000f0a700bb
:100970000000ea000000e9004f00de0000407800bf
:1009800000c070000004e0000300320010c0b3009b
:10099000ca170700a6003700200420001e006800c8
:1009a00000f0a7000000ea000000e9004f00de00b0
:1009b00080407800200620001e00680000f0a7009c
:1009c0000000ea000000e9004f00de00004078006f
:1009d00000c070000004e00002003200e51e0700c5
:1009e00093003700100420001e00680000f0a700ec
:1009f0000000ea000000e9004f00de0080407800bf
:100a0000100620001e00680000f0a7000000ea00a9
:100a10000000e9004f00de000040780000c07000d8
:100a20000004e0000f00320014d0bf000080fb0083
:100a30000000e9004f00de000040780014f0b7002d
:100a400014d0bf000004e00003003200201a2a0086
:100a50004c01070076003700301b2a0049010700cf
:100a600073003700200520001e00680000f0a7007a
:100a70000000ea000000e9004f00de00804078003e
:100a8000200720001e00680000f0a7000000ea0018
:100a90000000e9004f00de000040780000c0700058
:100aa0000004e000030032000570ef000e30ef009c
:100ab0005f003700a00520001e00680000f0a700be
:100ac0000000ea000000e9004f00de0080407800ee
:100ad000a00720001e00680000f0a7000000ea0048
:100ae0000000e9004f00de000040780000c0700008
:100af0000004e0000b003200701c2a0021010700f6
:100b000000402100621e0700b01e2a001d010700e0
:100b1000004821005e1e0700f0202a00190107008e
:100b200043003700600420001e00680000f0a700aa
:100b30000000ea000000e9004f00de00804078007d
:100b4000600620001e00680000f0a7000000ea0018
:100b50000000e9004f00de000040780000c0700097
:100b60000004e0000d003200d0232a000501070038
:100b700000402100191e070070242a00010107000f
:100b800000482100151e070010252a00fd0007005f
:100b900060262a00fb0007002500370080042000a3
:100ba0001e00680000f0a7000000ea000000e90055
:100bb0004f00de0080407800800620001e006800a4
:100bc00000f0a7000000ea000000e9004f00de008e
:100bd0000040780000c070000004e0001400320003
:100be000b0272a00e7000700b02a2a00e500070026
:100bf000a02c2a00e3000700502e2a00e100070085
:100c0000f02f2a00df000700b02a2a00dd000700cd
:100c1000f0312a00db000700e0362a00d900070087
:100c2000c0382a00d7000700203b2a00d500070063
:100c30000080fa004f03be004f02be004f01be000d
:100c40004f00be003600f900004006003600f800f4
:100c5000809fbe00829fbe00849fbe00869fbe0014
:100c60001400fa000468a9005020800062006000af
:100c70000000e0004d00320040208000004078007d
:100c8000f043b200004f7800402080004800de00b2
:100c9000f043b200204798000a24a9000040eb006e
:100ca000104798000000eb00200798003a0037003a
:100cb0001e80fb0064014700e60047005b1507004b
:100cc0001e80fb00e6004700e51507002e0090009f
:100cd0000000e0000200320066004700b81a07007a
:100ce0001e407800ef4f50000d003e001e80fb00bc
:100cf00080004000800c2a00008040001000780036
:100d0000002188001e80fb0080004000800c2a002b
:100d10000080400010007800402188000e0037005d
:100d20001e80fb007000500080004000800c2a00f4
:100d30000080400010007800102188001e80fb0019
:100d40007000500080004000800c2a0000804000ad
:100d500010007800502188001e4fe8001e407800e7
:100d6000ff4f50000200360080c0b300004f7800f3
:100d70001e4090000040e8001047980005d0bf00da
:100d80009e40900080cf5000030036001e4190002e
:100d900051002100824878002e4090009e4078004b
:100da00080cf5000c2ff3a0007003700502080007b
:100db000610060000000e0000300320010c0b300da
:100dc000f81b07000a04a9000080fa004f03be00c8
:100dd0004f02be004f01be004f00be003600f900ba
:100de000004006000000fa000308a9000080fa0095
:100df000004006000000fa000088a9000080fa0008
:100e0000004006000040da000000fe000a00fa0080
:100e100011002000b1bf9f00c0bf9f006a80570033
:100e20008e0607004fb897000080fa000000060009
:100e30000a00fa00e20f500034003e00f08c8000ff
:100e4000e10f500003003200e20f500011003a00a1
:100e50000c003700032220000300e00001003a00ec
:100e60000040da002002e200020035002822ef00f4
:100e700021e2a8002342ab000d003a002342a80063
:100e80000b003700032320000300e00001003a00bc
:100e90000040da003002e200020035003822ef00a4
:100ea00031e2a8003342ab0001003a003342a8000f
:100eb000820178000b0037003102fb00e10f500087
:100ec00004003a002322ab00feff3a002411880000
:100ed000030037003322ab00feff3a00a411880064
:100ee0008301e9000300e000f3ff3a00e10f500046
:100ef00003003a002302ab00feff32000b00370074
:100f00003302ab00feff3200080037003300200040
:100f1000b3bf9f00c0bf9f00d1bf9f00e2bf9f0033
:100f20006a8057004f0607006fb9970002007800eb
:100f30000080fa0000000600000005000000fa0032
:100f400068815700cfb89700a08980001000780012
:100f50000c0207000080fa00000006001d000700d8
:100f6000780007002d01070057010700ae000700b9
:100f7000870207002e023700a189800091007800c7
:100f8000df053700a189800091007800280507005f
:100f9000110020000000e00005003500a08980005d
:100fa00090007800a0002000d5050700cf00de00eb
:100fb0000100ea000000060000000600a013210066
:100fc00000000600fdff0700c0898800b089880086
:100fd00000000600ec874700889fbe008a9fbe0085
:100fe0008c9fbe008e1f78000006780001047800f8
:100ff000180790002805900098067800cdb79f004c
:10100000b80590001202780092029000220390002e
:10101000b20390000400be000601be004f18de00bf
:101020006011b8008000eb00d0b79f00e1b79f00cf
:10103000f2b79f0083bf9f00800478000900e000a2
:10104000060032006000b8006011b80004025000d1
:101050008582580006035900878359000e00e0007e
:10106000020035000d10a100cdb79f000900e0007f
:1010700005003a004fb097000028a30002003a0094
:101080000038a300020032008a00e90001003700a6
:101090008a007800f8815700a2002000080078003c
:1010a0008b0007000900e00003003a00cfb0970072
:1010b0000128a300080032000000e900008145007b
:1010c000b1c2b3000900e00001003200d1c2b30098
:1010d00001497800060037000138a30004003200ff
:1010e0000000e9008080450002c2b3008248780019
:1010f000480190000201e900000151008080450094
:101100004fb297008a0178000c0078006b0207004c
:101110009c0090000188a300040032009800900019
:10112000810f500001003d00010078004f0778005a
:101130004f06be004f05be004f04be00cf00b100f9
:10114000000006000200fa00889fbe008a9fbe00d1
:1011500080057800010478000200780018019000f2
:101160002805900098007800b1bf9f00b804900057
:101170000200e000020035000110a100b1bf9f0095
:10118000ea815700820020008a007800100278006f
:101190009002900020039000b003900008007800b7
:1011a0004b0007003fb99700f000610004003200d7
:1011b0000000e9008080440002c3b3008248780048
:1011c0003fb99700e8006100040032000000e90028
:1011d0008080440002c2b300824878004801900039
:1011e0000201e90000015100808044003fba9700ed
:1011f0008a0178000b007800300207009b00900005
:101200000188a3000400320098009000810f500074
:1012100001003d00010078004f05be004f04be00f4
:101220000080fa0000000600ea874700889fbe00a1
:101230008a9fbe008e1f78000004780003007800ab
:101240007287570084e2260055c72600049fbe001f
:10125000c3962200030f78006c875700004feb0005
:1012600011059000a1049000910578000200e000b3
:101270000200320002077800010037007287570031
:101280000000e00002003a000e0078001d05070093
:101290000a00e000030035008a0f5000010036000c
:1012a0000a0078000b0278008901780000017800bc
:1012b0008e00780008007800000207004f077800d1
:1012c0004f05be004f04be00af00b1000000060095
:1012d000f4874700889fbe008a9fbe008c9fbe0097
:1012e0008e1f78000605be000404be0081bf9f006b
:1012f00082b79f00f3b79f00b0009000e1b79f0056
:101300001301780092b79f00900690004000900073
:101310000000e900000678000d00e00001003d003b
:101320001d002000efb19700008041000048eb0055
:101330001e0020001f0037000c06e9000fb09700c8
:10134000cf80de006109b900a0b79f00b1b79f0050
:10135000c2b79f00d3b79f000203be000002be00c9
:101360000800be000a01be001c0607000007780046
:10137000efb097000c80400003c3b3000348470060
:101380008d06e9000fb897000000e90080bf9f00bc
:101390002fb29700bfb297004fb39700dfb397000b
:1013a0000800be000a01be00050607000205be00d7
:1013b0000004be000c00e0000d003400e00f5400fb
:1013c000e08f5c00e00f5d00e08f5d00daff3a0027
:1013d0000d00e000d8ff3c008fb897000100e0004e
:1013e000030034001fb197000218a300d2ff3a0097
:1013f0000e00e00002003a00ffb197001340a10088
:101400000c0078004f0778004f06be004f05be0065
:101410004f04be004f01b100000006000200fa00b8
:10142000889fbe008a9fbe000005780001047800f6
:101430000200780018019000a8049000980078003d
:10144000b1bf9f00b80590000200e0000200350027
:101450000110a100b1bf9f00ea815700a200200047
:10146000890078001002780090029000200390001c
:10147000b00390000800780095ff07004801900035
:101480000201e90000015100808045003fba970049
:10149000890178000a007800880107009a0090000e
:1014a0000188a3000400320098009000810f5000d2
:1014b00001003d00010078004f05be004f04be0052
:1014c0000080fa0000000600fa874700889fbe00ef
:1014d0008a9fbe008c9fbe008e1f7800800478001b
:1014e000010478008205780018019000280590001a
:1014f00018077800b80090000200e00002003500f4
:101500000e10a100010037001200200070006700db
:10151000e0b79f000b0032001b0278009b02900096
:101520002b039000bb039000e00f5200e08f5a00a5
:10153000e00f5b00e08f5b00020032008a86e9006a
:10154000010037008a067800e8026700f5b79f00bf
:10155000010032008d06e9001b0278009b0290001a
:101560002b039000bb039000e4af9f00f5af9f00fa
:1015700086b79f0097b79f00480690000c06e900c9
:101580000c8040000048eb00efb297007fb297005c
:101590008903780081047800d8af9f0002047800a6
:1015a0008bbf9f008a057800034578002b00370029
:1015b0000c06e9006fab97006f006300e90f500065
:1015c00002003c000003b000010037007005b000cd
:1015d0000a03fb001604b100f90f53000c003e0093
:1015e000000378000650a0001606b100f90f530062
:1015f00007003e00b4b79f00a5b79f00c7b79f0084
:1016000069040700cfb39700afb297003fb29700cd
:101610000c834400004b78000804e9008d06e900c3
:101620006fa89700ffa897000fb197009fb1970090
:10163000460020008301d1000281d3008180d300c5
:101640000080d3000603e900faff3a00e0af9f00f4
:10165000f1af9f0082b79f0093b79f00e10f560044
:101660000f0034006fa89700ffa897000fb19700f4
:101670009fb19700e00f5000e08f5800e00f590035
:10168000e08f5900caff3a000800e000c8ff3c00a4
:101690000d00e000020034000e18a300c4ff3a0061
:1016a00089007800f4b79f00870478005fac97004a
:1016b0008a4178000b0578008fbd97000500e00097
:1016c000140032001b0278009b0290002b03900054
:1016d000bb039000e4af9f00f5af9f0086b79f006b
:1016e00097b79f00e00f5200e08f5a00e00f5b00b9
:1016f000e08f5b00070032000c06e9000c80400020
:10170000034878000c06e9000c80400002c3b300d7
:1017100002487800ffb297000500e00004003200a4
:101720000c06e9000c80400002c2b30002487800b9
:10173000480190000201e9000c0151008c8040003a
:101740000e0278008a01780009007800db000700ab
:10175000990090000188a3000400320098009000d6
:10176000810f500001003d00010078004f07780014
:101770004f06be004f05be004f04be00af01b100d2
:10178000000006000200fa00881f780000047800bc
:10179000e2bf9f00648157000800780089020700bb
:1017a000980090000148a300010032000080eb0087
:1017b0004f0478000080fa0000000600889fbe00f9
:1017c000000478004800900082047800808f540064
:1017d000010036008004780009017800580090006c
:1017e000450307005800900009004000500498008d
:1017f000c800900089845000490498000048eb001c
:101800004f04be00000006001000780088fd37007d
:10181000900190000388a30001003200e7ff370029
:101820000348a30001003a00f7ff0700000006008c
:1018300084082000848f50001d0032000d003c0001
:1018400014082000848f50002700320002003c0062
:10185000040820000400370024082000848f500072
:101860003600320044082000848f500047003a00c0
:101870003a003700040a2000848f5000290032000b
:1018800004003c0004092000848f50003f003a000f
:101890002a003700020c2000828f500033003200f3
:1018a000020f2000828f500038003a002f003700ce
:1018b0009380e9000200e000050032008109780011
:1018c0001102fb00cfa2de00612bb9002c00370013
:1018d00081097800114278000482fb008002eb004d
:1018e0006033b8002600370013027800e40052008d
:1018f0000200e00006003200810978001102780041
:10190000910290004fabde00860378001c00370088
:101910008109780011027800910290006033b800cc
:10192000170037009380e9008109780011027800e0
:10193000cfa2de00612bb9001100370093027800be
:10194000e88052008109780011027800910290002d
:1019500021039000b1039000090037009380e90053
:101960000200e00002003200efff37009380e90040
:1019700081097800110278008002eb006033b80022
:101980000498be000690be0010000500000005008f
:1019900044082000848f50002500320008003c00dd
:1019a00014082000848f5000140032002408200006
:1019b000848f500024003200040820000c003700ff
:1019c00004092000848f50001f00320004003c00f6
:1019d00084082000848f500024003a000e00370055
:1019e000040a2000848f500011003200040c2000f3
:1019f000848f50001d003a000d0037009380e900ed
:101a0000810978009100780001087800cf91de000c
:101a10008288be00140037009380e90081097800b5
:101a20009100780001087800824878000e003700a5
:101a30009380e9008109780091007800010878001e
:101a400082087800080037009380e9008109780057
:101a500091007800010878006112b900612bb9008b
:101a60008498be008690be001000050000000500ae
:101a7000889fbe000004780048009000820478002f
:101a8000808f54000100360080047800090178003e
:101a9000580090009802070058009000090040008c
:101aa00050049800c80090008984500049049800b0
:101ab0000048eb004f04be0000000600f28747001c
:101ac000889fbe008a9fbe008c9fbe008e1f78003c
:101ad000800478000105780002047800830578000e
:101ae0006107620002003a008b0f540008003900c1
:101af000080178008a0078000900780044ff070098
:101b00008b0f540002003900880578001e00370052
:101b1000088655000c017800f00f560001003600d1
:101b200002012000010220007e8057007902070098
:101b30008c0678000500370002012000fe80570067
:101b40000900780032ff0700f0865600ef8f56003c
:101b5000f9ff3e004461de0000ff2f008091b900d4
:101b60000c014100fe8057000900780028ff0700a3
:101b70000e00e00004003a00080178008a007800b6
:101b80000900780022ff07000b0078004f0778005b
:101b90004f06be004f05be004f04be002f01b1002e
:101ba0000000060000000500000005000000050020
:101bb000000178000040eb008080fb008180400045
:101bc000e317210081814100134278000404e00002
:101bd00004003a00f0172100810040001140780015
:101be0000000060092017800934f520005003a0071
:101bf000f017210081004000114078000309e8003f
:101c0000010037000040e800ea4f5000eaff3600cc
:101c100000000600f6874700889fbe008a9fbe002e
:101c20008c9fbe008e1f78000005780001047800ac
:101c300083057800040678000000eb00c0b79f0021
:101c40008080eb00d1b79f00e0b79f00f2b79f0004
:101c50000008200080bf9f009800780001007800f5
:101c60008004eb00010037008904e800304178006f
:101c70000204e0000300320053c2b300834f51005e
:101c8000f9ff3a000900e000040032000901780081
:101c90000a007800defe0700188c44001807780060
:101ca00050c2b3009e4f10003f013a000e07e800fb
:101cb0000e0c780010003700cfb097000100a00094
:101cc0000b003700cfb097000110a00008003700cc
:101cd000cfb097000120a00005003700cfb09700db
:101ce0000130a00002003700cfb097000140a000f3
:101cf000c1b79f00000ce800180078009040780001
:101d0000b2c2b30082cf5000f1ff320007003c00a6
:101d100002c2b30082cf5000f0ff320032c2b300e3
:101d200082cf500007003a00efff3700d2c2b30065
:101d300082cf5000e0ff320002c3b30082cf5000d8
:101d4000e0ff3200a2c2b30082cf50000d003a0083
:101d5000000ce8001c80e900000e780010007800fc
:101d6000e0b79f000000e0000f003d00cfb09700fb
:101d70000100a200c1b79f000000ea00e0b79f0089
:101d80000900370084010700e0b79f000100370019
:101d9000000ce800180078009000fb000103b1007f
:101da000e98f5000faff36004fb097000008a300fb
:101db000020032000010a100c0b79f001800780098
:101dc000e1c2b30090cf100016003a008000eb0093
:101dd000d1b79f000000e800000c7800a1c2b3005a
:101de00090cf100006003a00000ce8001c80e900cb
:101df000000e780010007800d0b79f00090037006f
:101e000065010700d0b79f0001003700000ce80013
:101e1000180078009000fb000103b100e98f50002a
:101e2000faff36000800780061ff0700804678005e
:101e3000180078001000fb005402070091062000f3
:101e4000810f50003800320012003c004106200093
:101e5000810f5000340032000a003c0011062000bf
:101e6000810f50002000320031062000810f500009
:101e7000a000320051022000810f5000bc003a0047
:101e8000b400370071062000810f5000b8003c00fc
:101e90008800370001072000810f50005c003200ed
:101ea00007003c00e1062000810f50007a0032005c
:101eb000f1062000810f5000ad003a0039003700d4
:101ec00051072000810f50002700320081072000b9
:101ed000810f50004200320031072000810f500076
:101ee000a3003a008f0037008d80fb000c017800c2
:101ef00000fe2f000f004000360207000000e00047
:101f0000a800320018007800000ce800904178002a
:101f100002fe2f000f014100f88057000a007800f0
:101f200021ff07000e0037008d80fb008c01780038
:101f30001200200000fe2f000f0040003cfe0700b2
:101f40000000e00097003200180ce80002fe2f00ad
:101f50000f014100f88057000a0078001dfc0700bf
:101f600080844400900037008d80fb008c01780055
:101f70000001eb0000fe2f000f0040002cfe0700c8
:101f80000000e00087003200180ce80002fe2f007d
:101f90000f014100f88057000a0078001ffd07007c
:101fa000efff37008d80fb008c0178000001eb0013
:101fb00000fe2f000f0040001dfe07000000e000a3
:101fc00078003200180ce80002fe2f000f014100db
:101fd000f88057000a0078005afc0700e0ff37003d
:101fe0008d80fb008c0178000001eb0000fe2f00cb
:101ff0000f0040000efe07000000e0006900320004
:1020000018007800000ce800904178001c003700b0
:102010008c0178000001eb00010f200000fe2f0072
:102020000f00400002fe07000000e0005d003200eb
:10203000180ce8000fb097009fb097002fb19700e1
:10204000bfb19700e00f5000e08f5800e00f59003b
:10205000e08f590009003a00cfb597006fb49700a0
:1020600060172100a70107000b02780088017800a3
:1020700000017800611721004700370083c7b300d3
:1020800002fe2f000f014100f88057000a0078007f
:102090000dfd0700b2ff37000b8144008d80fb006f
:1020a0008c01780000fe2f000f00400038fe070072
:1020b0003c0037008d80fb000c01780000fe2f00f3
:1020c0000f004000c30107000000e00035003200af
:1020d00018007800000ce8009041780002fe2f0004
:1020e0000f014100f88057000a007800aefe07009b
:1020f0009bff370000c8b30080cf560029003a008c
:10210000180ce8001c80e900000e780010407800f0
:10211000e0df9f0013002000e2fd2f000f014100cf
:102120000800370000c8b30080cf56001d003a00f9
:10213000180ce8001c80e900000e78008001eb001c
:1021400010017800f88057000a00780036fc07007c
:1021500083ff370000c8b30080cf560011003a005b
:10216000180ce8004fb29700efb197000800370055
:102170000e0c78000000eb00c0b79f00e0b79f0096
:102180000080eb00d0b79f000002eb0084017800d4
:1021900012002000c11721000a00780047fe070046
:1021a0006fff3700180ce800090078004f0778002f
:1021b0004f06be004f05be004f04be006f01b100c8
:1021c000000006008200fa00889fbe008a1f780087
:1021d0000005780082047800c13f9f000004eb00f6
:1021e000100037000902780088017800a2f72f005c
:1021f0000f01410081f72f008f8040000a00780016
:1022000084fe070008004000880f500004003d00d5
:10221000b0042000e08c88000084eb00040037004c
:10222000000478004f3897001004e000edff3a00fa
:10223000080078004f0578004f04be000080fa00c7
:1022400000000600889fbe000004be000000eb00f6
:102250000800e00018003200180090000058a300a9
:102260000d003200d800900068009000808f500070
:1022700009003600b80990000001eb0082007800e8
:102280000800780003000100d80090000080eb00f7
:102290000100e000080032000000eb00200c980074
:1022a00060049800500498000900e0000200320029
:1022b00018007800d5fa07004f04be0000000600a1
:1022c000889fbe000004be000000eb000800e00094
:1022d00025003200180090000058a30011003200c1
:1022e000d800900068009000808f500009003600f0
:1022f000b80990000001eb00820078000800780027
:1023000003000100d80090000080eb000100e00015
:10231000150032000000eb00200c980060049800cb
:1023200050049800780a900008109000800f520026
:10233000060031000002520011002000cfa2de0092
:10234000612bb90018007800650007000000eb0061
:1023500000149800700c98000900e00002003200a0
:1023600018007800a9fa07004f04be00000006001c
:10237000800078001000200002022000828f5000b0
:1023800004003200e9805000e48f50000100360064
:102390000000eb0000000600889fbe008a1f780046
:1023a000000578000a047800984478000805e800e1
:1023b0000900fb00eeff07000000e000f9ff3a0013
:1023c000b0c2b30080cf540005003200d0c2b300c9
:1023d0008000eb0080cf540005003a000200370077
:1023e0008000eb0001003700110020000804e80025
:1023f0000000eb0003003700ea00b90002005000c3
:102400000003b0003801fb0003fd2f008281410072
:10241000e98f5100f8ff36000100e00001003a00aa
:102420000000ea004f0578004f04be0000000600df
:10243000889fbe008a1f780080047800010578001c
:1024400009007800af000700000478008a017800d6
:102450000801780011002000090078000a00070038
:10246000800078000080eb00888f500001003a0067
:102470000000eb004f0578004f04be00000006008e
:10248000100078006afa3700889fbe008a1f780023
:10249000810478000204780089c5b9000900e000d1
:1024a00001003a000004eb000a0178008000780087
:1024b00003007800d4fc0700800078008a8f500069
:1024c00003003200110009008980d8000004780060
:1024d000080078004f0578004f04be000000060099
:1024e000a0fd2f00f1ff2f009e0007004f89de00a6
:1024f00082017800000006008001780002003700a9
:10250000b15978000201e9000200e000fcff3a0046
:1025100000000600889fbe008a9fbe0080047800ed
:102520000200e0005b00320001407800814c78003e
:1025300082814400f1f99f00e20f510055003600fe
:1025400091449800a1449800e1f99f00d1f99f00bf
:10255000e60f51004f003600b1449800c1f99f00ca
:10256000e80f51004b0036000905ea0063056500dd
:102570000a8444000a055100c1ff2f0001056500cf
:102580000080fb008000eb001210200013102000e0
:10259000ea000700008cbe000a01440060b99f00f9
:1025a00071b99f00e80f55003a00360020049800ea
:1025b00031049800400498005104980020b99f000d
:1025c00031b99f0040b99f0051b99f00f80f5500e5
:1025d000300036006004980071049800000c9800e8
:1025e000110c9800200c9800310c9800400c9800b9
:1025f000510c980020b19f0031b19f0040b19f0065
:1026000051b19f0060b19f0071b19f0000b99f0060
:1026100011b99f0064016400780141000204440084
:10262000020555006011b8000203be000002be00a2
:102630000403be006022b8000000720081807200b6
:10264000020173008381730010003700009cbe00fc
:102650000294be004004980051049800620498005f
:1026600073049800000c9800110c9800220c98003c
:10267000330c9800400c9800510c9800620c9800a4
:10268000730c98000a02b1000802b000ff0f550059
:10269000eeff3e00090078004f05be004f04be006b
:1026a000000006000200fa0081017800e0ff9f00b0
:1026b000930090000188a30005003200d300900031
:1026c000805878000080fb00d10198000a00370094
:1026d000120020008f80e900030078004afc070008
:1026e000800078000080eb000100e0000200320072
:1026f000eff897000180fb000080fa000000060060
:10270000e8ff370080007800040037003104e00063
:1027100002003a00000051000000060001017800ac
:102720000108a300f9ff3a00810178003101780027
:10273000f4ef2f00020242000281ea00020162006f
:102740000408280004016100f7ff320083007800cc
:10275000010178003104e000fdff3a000000510063
:102760000000060002002f00f3ff2f00820f500030
:10277000838f5800040036000000ea00e08c8800d7
:102780000080eb008080eb0000000600f1fb2f00d2
:1027900080804000f98f500001003e000050a000f2
:1027a00000000600f9ff3700f1f92f00808040009b
:1027b000f98f500001003e00f005b2000000060055
:1027c000f9ff370000000600fef90700fdff0700d3
:1027d000fcff3700881f7800000478000008200004
:1027e000808f50001a00350010082000808f5000a4
:1027f0000d00340030082000808f500014003a0093
:10280000920078006880500000097800100278007b
:102810009002900020039000b0039000049cbe0042
:102820000694be00080037009202780064805200cf
:102830000009780090009000100078000b0007005d
:10284000009cbe000294be00100020000100370072
:102850000000eb004f0478000000060000c0da0022
:102860000000060000c0da000000060081037800c6
:102870001d0007000001be006000b8000478a3003e
:1028800013003a006220e10015003e000d003900ff
:102890008301d1000281d3008180d3008301d10064
:1028a0000281d3008180d3008301d1000281d30053
:1028b0008180d3000538b000c42add00f300b200e7
:1028c0008381720007f0a70003f0a000000006005b
:1028d00083ff2700020020006110b900f9ff3700d4
:1028e00003ff2700f7ff3700c70ade00f107b20039
:1028f000f50fb20008003200e1cf420002003200c2
:102900000170a00024000500810f7000010032005a
:102910000408050044000500810f700002003a0021
:10292000140005008502e9000000400081c0480055
:10293000fcff3b000170a00024000500020ab90062
:10294000001bb9000200b800810042008100430072
:1029500000000600889fbe008a9fbe00300442002f
:10296000b0844a0030054b0090854b006000b100f8
:102970000898be000a90be000440e10005c8e100ce
:1029800006d0e10007d8e1000200310068004000f5
:102990001008e8004f05be004f04be00000006000e
:1029a000889fbe008a9fbe001004780090049000ab
:1029b00020059000b00590000418540005985c00b4
:1029c00006185d0007985d00110020000440e1003a
:1029d00005c8e10006d0e10007d8e1000100390098
:1029e0008000eb00108810004f05be004f04be00b1
:1029f000000006001200fa00889fbe008a9fbe00f9
:102a00008c9fbe00e0b79f00f1b79f0082bf9f0080
:102a100093bf9f000605be000404be000000eb004b
:102a2000d0b79f00c0b79f00b0b79f00a0b79f006e
:102a300090b79f00000678005fb19700cfb0970075
:102a4000820141003fb097000200e00004003d0019
:102a5000370007007e805700beff070003003700e5
:102a6000330007007e805700cdff0700dfb69700d8
:102a70000d00e0000c0035006fb29700ffb2970028
:102a80000fbb97009fbb97001000200001002000a3
:102a90006011b800000272008182720002037300ac
:102aa000838373001b0007000c06e800010420006c
:102ab000810f5600e0ff3a000d00e00004003d00e9
:102ac0000802be000a03be007e805700a1ff070077
:102ad0005fa897000000e00005003a001fb29700d1
:102ae000afb297003fb39700cfb39700090007003c
:102af0006fb09700ffb097000fb997009fb997008c
:102b00004f06be004f05be004f04be000080fa0015
:102b1000000006000100070000000600a4b79f00a7
:102b2000b5b79f00c6b79f00d7b79f00000006004b
:102b30004f09de0082817100b3b79f004f01de00b4
:102b40008180400082807000a1b79f008fb0970005
:102b50004f09de00000040000200700090b79f00a7
:102b60007fa897004f01de008180400082807000c6
:102b700081b79f000d0007004f3ade0000004000c3
:102b800004007000f0af9f0008000700040242003c
:102b900085824a0006034b0087834b00dfff070056
:102ba0000802be000a03be00000006002fb2970014
:102bb000bfb297004fb39700dfb397000000060045
:102bc000881f780018002000881f780089ff070000
:102bd0008f87e9004f04780000000600801feb009b
:102be00084ff07008f87e90000000600889fbe0071
:102bf0008a9fbe00e00f5000e08f5800e00f5900a0
:102c0000e08f59000c003d006044b8006055b800ea
:102c10000000540081805c0002015d0083815d0042
:102c2000180020001500070008003d0018000700ec
:102c30000004eb00050037000004eb000f00070064
:102c400002003d001200070018002000dcff070012
:102c50000800e000060032006022b8006033b800cf
:102c60000000520081805a0002015b0083815b00fa
:102c70004f05be004f04be0000000600e00f5200ea
:102c8000e08f5a00e00f5b00e08f5b000000060061
:102c90006044b8006055b8000402540085825c00ae
:102ca00006035d0087835d0000000600889fbe006c
:102cb0008a9fbe008c1f7800e00f5000e08f580004
:102cc000e00f5900e08f59000d003d006044b8004e
:102cd0006055b8000000540081805c0002015d0076
:102ce00083815d001c0020000820e10009a8e100ac
:102cf0000ab0e1000bb8e1000d003d00080037000c
:102d00000006eb00e00f5200e08f5a00e00f5b007e
:102d1000e08f5b0006003d006044b8006055b800dd
:102d20000402540085825c0006035d0087835d0019
:102d3000aaff07000c00e000060032006022b80085
:102d40006033b8000000520081805a0002015b002d
:102d500083815b004f0678004f05be004f04be0024
:042d60000000060069
:020000040000fa
:102d6400416c000069610000733a000020250000f6
:102d740030340000580a0000004e00006f64000068
:102d840065490000443a000020250000303400006a
:102d940058000000253000003458000000250000d1
:102da40030340000580a00000a000000696e000078
:102db40064650000783a000020250000642c0000bf
:102dc400206d0000746900003a20000025300000e6
:102dd400347800002c200000736f0000757200002e
:102de40063650000206100006c69000061730000ed
:102df4003a20000025300000347800002c20000028
:102e04006465000073740000206100006c690000b8
:102e1400617300003a20000025300000347800007f
:102e24000a0000004f700000656e00004c63000053
:102e3400622000004d73000067200000506f000006
:102e44006f6c00003a200000256400000a000000b6
:102e54004f700000656e00004c63000062200000ab
:102e64004d73000067200000506f00006f6c00007d
:102e7400204d0000617800002044000065700000cf
:102e8400746800003a200000256400000a0a00006b
:102e940000430000414e0000204d00007367000015
:102ea400205000006f6f00006c3a000020250000e5
:102eb400640a000000430000414e0000204d000061
:102ec40073670000205000006f6f00006c2000004a
:102ed4004d6100007820000044650000707400001b
:102ee400683a000020250000640a00000a0000007f
:102ef4006473000050490000432000004341000077
:102f04004e20000046490000464f000020420000c9
:102f14007566000066650000722000004d610000c7
:102f2400782000004465000070740000683a0000d6
:102f340020250000640a00000a000000496e000019
:102f4400636f00006d6900006e670000204d000093
:102f54007367000020460000494600004f3a000015
:102f640020250000640a0000004f00007574000072
:102f7400676f0000696e0000672000004d73000059
:102f84006720000046490000464f00003a20000038
:102f9400256400000a0a0000004900006e63000076
:102fa4006f6d0000696e000067200000496e00002c
:102fb400707200006f6300006573000073200000ee
:102fc4004d73000067200000427500006666000033
:102fd400657200003a200000256400000a0a00001f
:102fe400004d0000544900005f4900004e490000b4
:102ff40054490000414c0000495a0000415400006b
:10300400494f00004e5f0000434f00004d50000048
:103014004c45000054450000004d00005449000098
:103024005f4900004e49000054490000414c000033
:10303400495a000041540000494f00004e5f00000f
:10304400434f00004d5000004c4500005445000023
:103054005f530000494d0000504c00004500000043
:103064004d540000495f00005645000052490000dd
:10307400465900005f4e00004f440000455f0000c9
:10308400494400005f4100004444000052450000f0
:103094005353000045440000004d00005449000013
:1030a4005f5600004552000049460000595f000089
:1030b4004e4f0000444500005f490000445f00009b
:1030c400474c00004f420000414c0000004d0000fe
:1030d400544900005f560000455200004946000074
:1030e40049450000445f00004e4f00004445000085
:1030f4005f490000440000004d540000495f000097
:10310400564500005249000046490000454400006d
:103114005f4e00004f440000455f0000494400003a
:103124005f530000494d0000504c00004500000072
:103134004d540000495f00004f5000005449000006
:103144004f4e0000414c00005f4900004e54000007
:103154004552000041430000544900004f4e000016
:103164005f520000454a00004543000054450000fa
:10317400440000004d540000495f00005445000025
:10318400524d0000494e000041540000455f0000cc
:10319400444f00005f5400004f5f000045520000a0
:1031a400524f0000520000004d540000495f0000df
:1031b400505200004f5400004f4300004f4c000099
:1031c4005f53000055500000504f0000525400005f
:1031d4005f4900004e51000055490000525900005b
:1031e400004d0000544900005f500000524f0000a1
:1031f400544f0000434f00004c5f00005355000043
:10320400505000004f520000545f0000524500002f
:10321400504c0000590000004d540000495f00006c
:10322400434f00004e530000554d0000455200002e
:103234005f490000444500004e5400004946000028
:10324400590000004d540000495f0000434f000046
:103254004e530000554d0000455200005f490000e8
:10326400444500004e54000049460000595f0000e8
:10327400524100004e470000450000004d5400003c
:10328400495f0000434f00004e530000554d0000bd
:10329400455200005f490000444500004e540000c0
:1032a4004946000049450000445f0000554e0000b7
:1032b4004b4e00004f5700004e0000004d540000dc
:1032c400495f0000434f00004e530000554d00007d
:1032d400455200005f490000444500004e54000080
:1032e4004946000049450000445f00005345000082
:1032f400540000004d540000495f0000434f00009b
:103304004e530000554d0000455200005f49000037
:10331400444500004e540000494600004945000061
:10332400445f0000434c000045410000520000008f
:103334004d540000495f0000434f00004e5300000d
:10334400554d0000455200005f490000444500000f
:103354004e5400004946000049450000445f000007
:1033640052450000534500005256000045440000f9
:10337400004d0000544900005f500000524f00000f
:103384004455000043450000525f000049440000da
:10339400454e00004449000046590000004d00001d
:1033a400544900005f500000524f00004455000093
:1033b40043450000525f000049440000454e0000b0
:1033c40054490000465900005f520000414e00007d
:1033d40047450000004d0000544900005f500000c4
:1033e400524f00004455000043450000525f000066
:1033f40049440000454e000054490000464900007d
:10340400454400005f5500004e4b00004e4f000045
:10341400574e0000004d0000544900005f5000006a
:10342400524f00004455000043450000525f000025
:1034340049440000454e000054490000464900003c
:10344400454400005f53000045540000004d000057
:10345400544900005f500000524f000044550000e2
:1034640043450000525f000049440000454e0000ff
:103474005449000046490000454400005f430000f1
:103484004c45000041520000004d0000544900002a
:103494005f500000524f00004455000043450000b7
:1034a400525f000049440000454e000054490000aa
:1034b40046490000454400005f52000045530000a7
:1034c4004552000056450000440000004d540000e1
:1034d400495f000045560000454e0000545300006b
:1034e4005f490000444500004e5400004946000076
:1034f400595f00004445000053540000004d000093
:10350400544900005f450000564500004e54000039
:10351400535f000049440000454e00005449000038
:1035240046590000004d0000544900005f4500006a
:10353400564500004e5400005f4c00004541000019
:10354400524e0000004d0000544900005f5000003e
:10355400435f000045560000454e0000545f0000e4
:1035640052450000504f000052540000004d00002e
:10357400544900005f530000494d0000504c0000c6
:10358400455f00004e4f0000444500005f490000c5
:103594004e4600004f5f00005245000051550000a8
:1035a40045530000540000004d540000495f0000e2
:1035b400534900004d5000004c4500005f4e000090
:1035c4004f440000455f0000494e0000464f000094
:1035d4005f520000455000004c590000004d0000af
:1035e400544900005f530000494d0000504c000056
:1035f400455f000054520000414900004e5f000046
:10360400494e0000464f00005f5200004551000043
:103614005545000053540000004d0000544900007b
:103624005f530000494d0000504c0000455f00000e
:1036340054520000414900004e5f0000494e000012
:10364400464f00005f520000455000004c590000f6
:10365400004d0000544900005f5400005241000036
:1036640043540000494f00004e5f000050520000d8
:103674004f5400004f4300004f4c0000004d000029
:10368400544900005f5400005241000043540000bc
:10369400494f00004e5f000052450000504c0000ae
:1036a40059200000004d0000544900005f53000001
:1036b40054520000454100004d5f0000494e000097
:1036c400495400005f520000455100005545000078
:1036d40053540000004d0000544900005f530000a3
:1036e40054520000454100004d5f0000494e000067
:1036f400495400005f520000455000004c5900003e
:10370400004d0000544900005f4600005241000093
:103714004d4500005f54000059500000455f000013
:10372400434100004e5f0000535400005245000026
:10373400414d00005f530000454e0000440000006e
:103744004d540000495f00005354000052450000ee
:10375400414d00005f500000524f000043450000ff
:1037640045440000004d0000544900005f53000030
:1037740054520000454100004d5f0000434f0000db
:103784004d5000004c45000054450000004d000021
:10379400544900005f4400004154000041470000c8
:1037a400524100004d5f00004f4b00005f5200008b
:1037b400455000004c590000004d000054490000e1
:1037c4005f440000415400004147000052410000a2
:1037d4004d5f0000524500004a450000435400007c
:1037e400454400005f520000455000004c59000061
:1037f4000043000031430000545200004c310000eb
:103804003a20000030780000257800000a0000000b
:103814004331000056450000433a000020300000c8
:1038240078250000780a00000043000031460000bb
:1038340043540000524c00003a200000307800004d
:10384400257800000a0000004331000046490000ca
:10385400464f00003a200000307800002578000030
:103864000a00000043310000494e000054460000a5
:103874003a20000030780000257800000a0000009b
:1038840043310000494e0000544500003a20000036
:1038940030780000257800000a0000004331000061
:1038a400454300003a2000003078000025780000ed
:1038b4000a00000043310000434600004731000085
:1038c4003a20000030780000257800000a0000004b
:1038d4004331000043460000473200003a20000014
:1038e40030780000257800000a0000004331000011
:1038f400464500004e3100003a20000030780000b8
:10390400257800000a00000043310000464d000005
:10391400534b0000534500004c3100003a20000096
:1039240030780000257800000a00000043310000d0
:10393400464d0000534b0000534500004c3200003c
:103944003a20000030780000257800000a000000ca
:103954004331000052580000465500004c3100002d
:103964003a20000030780000257800000a000000aa
:103974004331000052580000465500004c3200000c
:103984003a20000030780000257800000a0000008a
:1039940043310000525800004f56000046310000e9
:1039a4003a20000030780000257800000a0000006a
:1039b40043310000525800004f56000046320000c8
:1039c4003a20000030780000257800000a0000004a
:1039d400433100005452000030310000434f0000d6
:1039e4004e3a00002030000078250000780a0000dc
:1039f4000043000031310000545200003233000013
:103a0400434f00004e3a00002030000078250000ab
:103a1400780a0000004300003154000052340000d2
:103a2400354300004f4e00003a200000307800007b
:103a3400257800000a0000004331000054520000c1
:103a440036370000434f00004e3a0000203000009b
:103a540078250000780a000000430000315200007d
:103a6400584400003a200000307800002578000017
:103a74000a0000004331000054580000443a00009a
:103a84002030000078250000780a00000043000080
:103a94003142000055460000504e000054310000f1
:103aa4003a20000030780000257800000a00000069
:103ab4004331000042550000465000004e540000bf
:103ac400323a00002030000078250000780a000017
:103ad400004300003142000055460000504e0000f3
:103ae400543300003a2000003078000025780000ac
:103af4000a00000043310000425500004650000017
:103b04004e540000343a00002030000078250000b4
:103b1400780a0000004d0000415300004b530000a0
:103b24000043000031520000584d000030530000a3
:103b3400494400003a200000307800002578000055
:103b44000a00000043310000525800004d300000cc
:103b540045490000443a0000203000007825000068
:103b6400780a00000043000031520000584d000064
:103b740031530000494400003a200000307800002e
:103b8400257800000a00000043310000525800006c
:103b94004d31000045490000443a00002030000047
:103ba40078250000780a000000430000315200002c
:103bb400584d000032530000494400003a200000f0
:103bc40030780000257800000a000000433100002e
:103bd400525800004d32000045490000443a0000ac
:103be4002030000078250000780a0000004600001c
:103bf400494c0000544500005253000000430000ab
:103c0400315200005846000030530000494400007f
:103c14003a20000030780000257800000a000000f7
:103c2400433100005258000046300000454900006e
:103c3400443a00002030000078250000780a000093
:103c44000043000031520000584600003153000088
:103c5400494400003a200000307800002578000034
:103c64000a000000433100005258000046310000b1
:103c740045490000443a0000203000007825000047
:103c8400780a00000043000031520000584600004a
:103c940032530000494400003a200000307800000c
:103ca400257800000a00000043310000525800004b
:103cb4004632000045490000443a0000203000002c
:103cc40078250000780a0000002e00002e2e000047
:103cd4002e2e0000004400004d4100002030000062
:103ce400004400004d410000304300004f4e0000ee
:103cf4003a20000030780000257800000a00000017
:103d0400444d00004130000052450000513a00008b
:103d14002030000078250000780a000000440000ec
:103d24004d4100003053000054410000483a000067
:103d34002030000078250000780a000000440000cc
:103d44004d41000030530000544100004c3a000043
:103d54002030000078250000780a000000440000ac
:103d64004d4100003053000054420000483a000026
:103d74002030000078250000780a0000004400008c
:103d84004d41000030530000544200004c3a000002
:103d94002030000078250000780a0000004400006c
:103da4004d41000030500000414400003a20000022
:103db40030780000257800000a000000444d00001f
:103dc40041300000434e0000543a0000203000000f
:103dd40078250000780a0000004400004d410000ee
:103de40020310000004400004d4100003143000038
:103df4004f4e00003a200000307800002578000083
:103e04000a000000444d0000413200005245000009
:103e1400513a00002030000078250000780a0000a4
:103e2400004400004d4100003153000054410000a3
:103e3400483a00002030000078250000780a00008d
:103e4400004400004d410000315300005441000083
:103e54004c3a00002030000078250000780a000069
:103e6400004400004d410000315300005442000062
:103e7400483a00002030000078250000780a00004d
:103e8400004400004d410000315300005442000042
:103e94004c3a00002030000078250000780a000029
:103ea400004400004d410000315000004144000036
:103eb4003a20000030780000257800000a00000055
:103ec400444d000041310000434e0000543a0000cc
:103ed4002030000078250000780a0000004400002b
:103ee4004d41000020320000004400004d4100001c
:103ef400324300004f4e00003a20000030780000aa
:103f0400257800000a000000444d00004132000002
:103f140053540000414800003a200000307800006b
:103f2400257800000a000000444d000041320000e2
:103f340053540000414c00003a2000003078000047
:103f4400257800000a000000444d000041320000c2
:103f540053540000424800003a200000307800002a
:103f6400257800000a000000444d000041320000a2
:103f740053540000424c00003a2000003078000006
:103f8400257800000a000000444d00004132000082
:103f940050410000443a0000203000007825000021
:103fa400780a0000004400004d4100003243000044
:103fb4004e5400003a2000003078000025780000bc
:103fc4000a000000444d00004120000033000000be
:103fd400444d000041330000434f00004e3a0000be
:103fe4002030000078250000780a0000004400001a
:103ff4004d41000033520000455100003a200000ba
:1040040030780000257800000a000000444d0000cc
:104014004133000053540000414800003a2000009e
:1040240030780000257800000a000000444d0000ac
:104034004133000053540000414c00003a2000007a
:1040440030780000257800000a000000444d00008c
:104054004133000053540000424800003a2000005d
:1040640030780000257800000a000000444d00006c
:104074004133000053540000424c00003a20000039
:1040840030780000257800000a000000444d00004c
:104094004133000050410000443a00002030000049
:1040a40078250000780a0000004400004d4100001b
:1040b400334300004e5400003a20000030780000e2
:1040c400257800000a000000444d00004120000053
:1040d400436f00006d6d00006f6e0000004400002f
:1040e40053410000445200004c3a000020300000cc
:1040f40078250000780a00000044000053410000c5
:1041040044520000483a00002030000078250000a6
:10411400780a0000004400004d41000050570000a0
:10412400433a00002030000078250000780a00009f
:10413400004400004d41000052510000433a000089
:104144002030000078250000780a000000440000b8
:104154004d4100004c430000413a00002030000073
:1041640078250000780a0000004400004d4100005a
:1041740050500000533a0000203000007825000021
:10418400780a00000000000008000000feff0000a4
:10419400fdff0000fbff0000f7ff0000efff000041
:1041a400dfff0000bfff00007fff0000fffe0000f4
:1041b400fffd0000fffb0000fff70000ffef000021
:1041c400ffdf0000ffbf0000ff7f0000433100005d
:1041d40052580000465500004c3100003a200000bf
:1041e40030780000257800000a0000004331000008
:1041f40052580000465500004c3200003a2000009e
:1042040030780000257800000a0000004f75000097
:10421400746700006f6900006e6700005f43000070
:10422400414e00005f4200007566000066650000b4
:10423400724500006d70000074790000004e0000ab
:104244004f540000204f000075740000676f000099
:10425400696e0000675f0000434100004e5f00008c
:10426400427500006666000065720000456d00003e
:1042740070740000790000004331000054520000c3
:1042840030310000434f00004e62000069740000aa
:10429400732e0000545800005245000051300000b5
:1042a400203d000020310000004300003154000094
:1042b40052300000314300004f4e0000626900009c
:1042c400747300002e540000585200004551000041
:1042d400302000003d200000300000004331000089
:1042e4005452000030310000434f00004e62000081
:1042f40069740000732e00005458000052450000f9
:1043040051310000203d0000203100000043000036
:104314003154000052300000314300004f4e000081
:1043240062690000747300002e54000058520000ab
:1043340045510000312000003d2000003000000005
:104344004d65000073730000616700006573000031
:1043540020500000726900006e7400006564000063
:10436400004d000065730000736100006765000084
:104374007320000053750000707000007265000027
:104384007373000065640000006600006c75000033
:1043940073680000696e0000673a0000206900003d
:1043a4006e6300006f6d0000696e0000675f0000bf
:1043b4006f700000656e00006c630000625f0000b7
:1043c4006d730000675f000066690000666f00009f
:1043d400006600006c75000073680000696e0000e0
:1043e400673a0000206f000075740000676f0000da
:1043f400696e0000675f00006f700000656e00006a
:104404006c630000625f00006d730000675f000072
:1044140066690000666f0000006600006c750000ad
:1044240073680000696e0000673a000020690000ac
:104434006e6300006f6d0000696e0000675f00002e
:104444006f700000656e00006c630000625f000026
:10445400696e0000707200006f63000065730000f5
:10446400735f00006d730000675f00006c690000fb
:1044740073740000006900006e6300006f6d00003b
:10448400696e0000673a0000006f00007574000058
:10449400676f0000696e0000673a00000069000061
:1044a4006e6300006f6d0000696e000067200000fd
:1044b400696e00002d700000726f000063650000db
:1044c400737300003a0000006f7500007467000009
:1044d4006f6900006e670000206900006e2d000007
:1044e400707200006f63000065730000733a00008f
:1044f400005400003a200000466f00007263000080
:10450400657300002061000020430000414e00005c
:1045140020540000726100006e7300006d69000099
:1045240074200000776900007468000020610000b6
:10453400206d0000616400006520000075700000bb
:10454400206d000065730000736100006765000062
:10455400004300003a200000436c00006561000045
:10456400727300002074000068650000205400008d
:1045740058520000455100003020000072650000d0
:104584006769000073740000657200002000000079
:104594004c3a00002044000069730000616200008e
:1045a4006c65000020430000414e000020690000bb
:1045b4006e74000065720000727500007074000073
:1045c40073200000004300003a200000456e000004
:1045d400616200006c65000020430000414e000051
:1045e400206900006e74000065720000727500009e
:1045f4007074000073200000004200003a200000a4
:1046040050720000696e00007420000053740000b2
:104614006174000075730000206f000066200000c4
:1046240074680000652000004275000066660000a2
:104634006572000073200000004100003a20000071
:10464400546f0000676700006c6500007320000071
:10465400696600002074000068650000206d000099
:10466400657300007361000067650000206400004a
:1046740065740000616900006c7300002061000033
:104684007265000020700000726900006e74000002
:1046940065640000207400006f200000746800004e
:1046a40065200000554100005254000020690000bc
:1046b4006e20000074680000652000006d65000035
:1046c4007373000061670000652000006c6f0000d8
:1046d4006f70000020000000523a000020520000d9
:1046e4006573000065740000204d000061780000cf
:1046f400204200007566000066650000722000001c
:10470400436f0000756e0000746500007273000052
:1047140020000000463a000020440000756d0000af
:1047240070200000636f00006e740000656e00006e
:1047340074730000206f000066200000746800009d
:104744006520000046490000464f0000206200003a
:1047540075660000666500007273000020000000aa
:104764005a3a0000204600006f72000063650000a2
:10477400204600006c75000073680000207400007f
:104784006865000020460000494600004f200000f4
:104794006275000066660000657200007320000008
:1047a400000000002020000066610000696c000029
:1047b40020730000746f0000726500003a2000004e
:1047c400416c00006c6f00006361000074650000c0
:1047d400416e000064530000746f000072650000b5
:1047e400546f000046490000464f000000200000be
:1047f40020660000616900006c200000616c00000c
:104804006c6f000063610000746500003a200000d2
:10481400416c00006c6f000063610000746500006f
:10482400416e000064530000746f00007265000064
:10483400546f000046490000464f0000002000006d
:1048440020660000616900006c20000066690000b9
:10485400727300007420000066720000616d000035
:10486400653a0000206100006c6c00006f6300007a
:1048740061740000650000002020000066610000f3
:10488400696c000020660000697200007374000007
:1048940020660000726100006d6500003a2000008f
:1048a400666900006e6400000020000020660000bd
:1048b400616900006c2000004d6900006464000020
:1048c4006c65000020660000726100006d650000e8
:1048d4000020000020660000616900006c200000d8
:1048e400434100004e2000004c610000737400003e
:1048f40046720000616d0000652000002d2000005c
:10490400707500007368000000200000206600003d
:10491400616900006c200000434100004e2000004b
:104924004c6100007374000046720000616d000069
:10493400652000002d200000666900006e64000000
:10494400006e00006f640000653a0000202500003e
:10495400640a0000004600006f7500006e640000e9
:104964000043000049440000004100004d440000a1
:10497400004100004d7200000000000020530000c0
:104984006f75000072630000652000004d54000044
:10499400493a0000205b0000307800002530000018
:1049a400347800005d2000002d200000536f0000cb
:1049b4007572000063650000204100006c6900000e
:1049c400617300003a2000005b300000782500008d
:1049d40030340000785d0000202d000020440000e9
:1049e4006573000074200000416c000069610000e0
:1049f400733a0000205b000030780000253000008e
:104a0400347800005d2000000030000078250000ac
:104a14003032000078200000005d0000000000003b
:084a2400405e00005400000098
:020000040000fa
:104a2c000000fa00889fbe008a9fbe002002a900e9
:104a3c000111800090ff2f000080600000118800a1
:104a4c0020a2a9002062a800d001200040118800fb
:104a5c0023a2a90023e2a9002188a8002168a800ac
:104a6c0022c2a90022e2a90021e2a8002342a80048
:104a7c000019200001002000cd1d0700012080003e
:104a8c00f08f2f000080600000a0a00000208800a4
:104a9c000000000001208000000e200080806000db
:104aac0000082000808f5000faff3a00812080001f
:104abc00f0f32f00008060000060a00080208800d0
:104acc008120800000fc2f0000806000f000b3000b
:104adc00802088009120800070fc2f0000806000f6
:104aec000040a0009020880012e4a80091208000d3
:104afc00f08f2f00008060000090a00090208800b4
:104b0c009120800080ff2f00008060000010a0002a
:104b1c009020880012c4a8000164a90031208000f4
:104b2c0000fe2f00008060000030a00030208800c4
:104b3c003120800000002e00010070003020880021
:104b4c008002eb00f4002000110020006011b8007e
:104b5c000000eb007300070001208000f08f2f0095
:104b6c000080600000208800000000000120800010
:104b7c00000e2000008060000000e000fbff3a0007
:104b8c002a24ef0050218000402188004021800021
:104b9c001021880010218000002188003038280066
:104bac0080218800202828009021880010182800d7
:104bbc00a021880000082800b02188002468a800e3
:104bcc000c04a8000c24a8004388a80043a8a90042
:104bdc0043c8a8001021a9001081a80010a1a800aa
:104bec0090d023006008880000e8a90020e8a80005
:104bfc0011e1a8000010a9000030a9000050a90084
:104c0c000070a9000090a900313a800000e02f004c
:104c1c0080806000a003200001007000303a880002
:104c2c0010002000203a88000e2eef001e2eef0000
:104c3c00a136800000f82f0080806000d002200098
:104c4c0001007000a036880041348000f00f2c0069
:104c5c008080600000e0200001007000403488007b
:104c6c002136800000f82f0080806000c0022000f8
:104c7c0001007000203688004134800000fc2f00b9
:104c8c00008060000000a00040348800000220007a
:104c9c0000598800004420006059880070002000f2
:104cac007059880020022000105988000a20210029
:104cbc000b0020000a00be0000007800205988007c
:104ccc00262bef000308a9002308a80021eba8005d
:104cdc000002220000588800204420006058880000
:104cec007000200070588800600420001058880064
:104cfc0008202100090020000800be0000007800f8
:104d0c0020588800062bef000088a9002088a800f6
:104d1c0001eba8004f05be004f04be000080fa0056
:104d2c00000006002800fa00889fbe008a9fbe0083
:104d3c008c9fbe00200f9800320f9800430f9800f4
:104d4c00510f9800640f9800750f98006000b80020
:104d5c00008fbe006000b800200798003107980053
:104d6c006000b80040079800510798000004a800a4
:104d7c002e089000000040000000400080007800e9
:104d8c000044200000804000600798002e0890002e
:104d9c004280de00000040008000780000422000cd
:104dac0000804000700798002e0890004380de00c1
:104dbc00000040008000780080412000008040000e
:104dcc00000f980040412000100f98005e089000e2
:104ddc00e10f50003b003a003e089000ce089000d6
:104dec00f2ff2f00030020008002780001027800ff
:104dfc00020078008300780000806200810062006d
:104e0c0031179800201798002e109000be109000bb
:104e1c0020079800310798003e089000ce089000bb
:104e2c004089de00021798004f89de0012179800a7
:104e3c000e1090009e10900000007800630060003f
:104e4c008006eb00000678000c00be0040079800be
:104e5c00510798003e089000ce089000428dde006d
:104e6c00cf8dde000a01be00f07f20000100200083
:104e7c00020278000301780080017800810078003c
:104e8c000300620081006100810478000004780056
:104e9c00088fbe001e007800c500dd004e0090009b
:104eac0000804000e80040006e009000010878008f
:104ebc006e0090000080e800ae00900001087800c1
:104ecc00150037003e099000ce099000f07f2000bd
:104edc0001002000020278000301780080017800b4
:104eec00810078000300620081006100810378007a
:104efc0000037800068fbe001e007800c500dd00a0
:104f0c006e009000010878006e0090000080e800b0
:104f1c008000eb00010878007e0090009000780083
:104f2c002e089000630060004200dd00f2002000bb
:104f3c000010dd000080ea00808060007e009000a0
:104f4c00010878002e089000630060004200dd002c
:104f5c00ee0890008008dd007e00900010007800c4
:104f6c00810070007e009000010878000e0890000f
:104f7c00900078002e089000670060000000400050
:104f8c00320020000010dd000080ea00808060000c
:104f9c000e089000010878002e0890006700600051
:104fac0000004000fe0890008008dd000e08900014
:104fbc0010007800810070000e0890000108780045
:104fcc00110020002e0890000008dd008000780001
:104fdc001e08900010007800810070001e089000e0
:104fec00010878000004a9004f06be004f05be0062
:104ffc004f04be000080fa00000006002000fa00fa
:10500c00889fbe008a9fbe008c9fbe0070079800d0
:10501c00020f9800130f9800210f9800340f98007e
:10502c006000b800008fbe006000b8002007980038
:10503c00310798006000b8004007980051079800ad
:10504c000004a8007e00900000004000000040001a
:10505c00800078000043200000804000600798002a
:10506c003e089000e10f500045003a000e089000f9
:10507c009e089000f2ff2f000300200080027800b1
:10508c000102780002007800830078000080620042
:10509c0081006200710f9800600f98006e089000fc
:1050ac00fe08900020079800310798000e08900029
:1050bc009e0890004089de00420f98004f89de0068
:1050cc00520f98004e089000de0890000000780007
:1050dc00630060008006eb00000678000c00be0048
:1050ec0040079800510798000e0890009e08900009
:1050fc00428dde00cf8dde000a01be00f07f200065
:10510c000100200002027800030178008001780081
:10511c008100780003006200810061008104780046
:10512c0000047800088fbe002e089000e10f50009c
:10513c0008003a001e007800c500dd004e0090000b
:10514c0000804000e80040006e00900001087800ec
:10515c00060037001e007800c500dd004e009000f0
:10516c00808040006e009000010878006e00900076
:10517c000080e800ae009000010878001e003700a7
:10518c000e0990009e099000f07f20000100200085
:10519c000202780003017800800178008100780019
:1051ac000300620081006100810378000003780035
:1051bc00068fbe002e089000e10f500006003a004a
:1051cc001e0078004500dd00e80040006e009000f5
:1051dc0001087800040037001e007800c500dd00cf
:1051ec006e009000010878006e0090000080e800ce
:1051fc008000eb00010878000004a9004f06be00f7
:10520c004f05be004f04be000080fa0000000600ef
:10521c000400fa00000f7800214798001e00780067
:10522c00e30f50002e003200e30f500005003e004b
:10523c00e10f500016003200e10f50001e003e003e
:10524c0009003700e50f500039003200e50f50001f
:10525c002d003900e60f50003f003200e70f5000e0
:10526c0047003200500037002e4090006140600033
:10527c000080fb00610060004300dd0081218000a4
:10528c000130a10001007000802188004600370029
:10529c002e409000614060000080fb0061006000c7
:1052ac004b00dd008121800001b0a10001007000e5
:1052bc00802188003c0037002e4090006140600047
:1052cc000080fb00610060004300dd009121800044
:1052dc000130a100010070009021880032003700dd
:1052ec002e409000614060000080fb006100600077
:1052fc004b00dd009121800001b0a1000100700085
:10530c0090218800280037002e40900061406000fa
:10531c000080fb00610060004300dd00a1218000e3
:10532c000130a10001007000a02188001e00370090
:10533c002e409000614060000080fb006100600026
:10534c004b00dd00a121800001b0a1000100700024
:10535c00a0218800140037002e40900061406000ae
:10536c000080fb00610060004300dd00b121800083
:10537c000130a10001007000b02188000a00370044
:10538c002e409000614060000080fb0061006000d6
:10539c004b00dd00b121800001b0a10001007000c4
:1053ac00b0218800000000000080fa000000060018
:1053bc000200fa00000f78001e007800e30f500086
:1053cc0029003200e30f500005003e00e10f5000b1
:1053dc0014003200e10f50001b003e0009003700a2
:1053ec00e50f500031003200e50f50002700390066
:1053fc00e60f500036003200e70f50003c00320040
:10540c0044003700802180006800600000f0a70095
:10541c000000ea000000e9004f00de0000407800c8
:10542c003d0037008121800000802000008060005a
:10543c0000f0a7000000ea000000e9004f00de00c9
:10544c000040780034003700902180006800600034
:10545c0000f0a7000000ea000000e9004f00de00a9
:10546c00004078002c003700912180000080200043
:10547c000080600000f0a7000000ea000000e900d6
:10548c004f00de000040780023003700a021800090
:10549c006800600000f0a7000000ea000000e900ce
:1054ac004f00de00004078001b003700a121800077
:1054bc00008020000080600000f0a7000000ea00df
:1054cc000000e9004f00de000040780012003700b9
:1054dc00b02180006800600000f0a7000000ea0026
:1054ec000000e9004f00de00004078000a003700a1
:1054fc00b1218000008020000080600000f0a70037
:10550c000000ea000000e9004f00de0000407800d7
:10551c00010037000040eb000080fa00000006009c
:10552c003a00fa00889fbe008a9fbe008c9fbe0086
:10553c00400f9800520f9800630f9800710f98005d
:10554c00041798006000b800008fbe006000b8001f
:10555c0020079800310798006000b80040079800b9
:10556c00510798006000b800600798007107980018
:10557c006000b800000f9800110f98006000b80090
:10558c00200f9800310f98007e0890000000e0007a
:10559c003c0032005e089000ee089000f203200000
:1055ac00030020008002780001027800820078005d
:1055bc0003007800818062000000620080047800a3
:1055cc00010478000800be00000f9800110f98002d
:1055dc005e089000ee0890004a09dd004605de00ea
:1055ec000a057100c68dde000a00be00f2ff200025
:1055fc00030020008002780001027800820078000d
:10560c00030078008180620000006200201798007f
:10561c00111798001e109000ae109000200f9800eb
:10562c00310f98005e089000ee089000428ede006c
:10563c00cf8ede000c00be00f27f200003002000a5
:10564c008002780001027800020078008300780064
:10565c0000806200810062004117980030179800aa
:10566c003e109000ce1090006007980071079800d3
:10567c002e0a9000be0a9000240798003507980067
:10568c000f0037005e089000ee089000f27f2000bb
